:02000002D0002C
:1040000000400D00C8560D00000006000C00050120
:084010000401BD0B00000000DB
:0440180058540D00EB
:10401C0009480A49884208B505D0094A824202D0AB
:10402C00121A01F0D1F90748074A0021121A01F0BF
:10403C00D9F9014808BD00BFC0E5032034560D0076
:10404C002CE603202CE60320F0E7032070B5074E86
:10405C00074C00F0CDFDA41BA4080025A54200D1FF
:10406C0070BD56F8043B98470135F7E708560D002C
:10407C002C560D0000F01CB808B500F085F8BDE812
:10408C00084000F077BD00F025BC00F02BBC007898
:10409C00B0FA80F04009704701230370704710B5E7
:1040AC000446006808B100F01DFC204610BD00005D
:1040BC00F8B50121032001F0F1F80121052001F0F0
:1040CC00EDF80121072001F0E9F80021122001F0A0
:1040DC00E5F80021102001F0E1F800210E2001F09C
:1040EC00DDF800F08BFE4FF4165100F07BFE01F072
:1040FC002BF901461548164C164D174E174F00F06C
:10410C00F1F9124800F0A4F9104800F07EF9144BB4
:10411C001B78237022782B789A4210D801F014F96E
:10412C00217800F083FF01F00FF900F087FF307069
:10413C0008B923783B70237801332370EAE701F048
:10414C0003F9BDE8F84000F03FBF00BF40E6032094
:10415C003DE60320C2E503203CE60320C0E5032036
:10416C00C1E5032038B50D46C1B20320144601F059
:10417C00A6F8E9B2052001F0A2F8E1B20720BDE8EB
:10418C00384001F09CB8000038B52B4800F0BEF860
:10419C000446294800F0BDF8272C05461DD80022FE
:1041AC0011460120FFF7DEFF0E2001F0A1F80128D7
:1041BC001DD100F023FE214900F058FC00F01EFE3A
:1041CC000A220546214600F064FC284600F055FC06
:1041DC00BDE83840C82000F093BC952C97BF002256
:1041EC0000210121104684BF01220846DAE7102085
:1041FC0001F07EF801280DD100F000FE104900F00E
:10420C0035FC00F0FBFD0A220446294600F041FC77
:10421C002046DBE7122001F06BF801280BD100F0EF
:10422C00EDFD084900F022FC00F0E8FD064B0446C9
:10423C0019780A22EAE738BD40E603206C540D00D9
:10424C0078540D0086540D00C0E5032010B50C48C1
:10425C000C4C00F021F80021012000F0B7FA0023EB
:10426C002360A380A3710320A3F58033A36000F027
:10427C009DFA2046044A0549BDE8104001F08CB86F
:10428C0040E6032030E603202CE60320AB400D0073
:10429C000368C9B29B681847704710B50446602183
:1042AC00006800F0C3FE206800F0C8FEB0FA80F091
:1042BC00400910BD38B505460C460068602100F079
:1042CC00B5FE2868036821469B689847286800213A
:1042DC0000F0B0FE08B1002038BD28680222602131
:1042EC0000F0A1FE286803681B6998470028F2D0EB
:1042FC00286803685B6998470446286803685B690B
:10430C009847E4B244EA002080B2E5E70821FFF7C1
:10431C00D1BF0921FFF7CEBF0C21FFF7CBBF70B582
:10432C0004460E4600686021154600F07FFE2068AA
:10433C00036831469B689847E9B22068FFF7A8FFED
:10434C00290A2068FFF7A4FF206800F077FEB0FA76
:10435C0080F0400970BD70B504460D461646FFF757
:10436C00A9FF00F47F4040EA060229462046BDE83A
:10437C007040FFF7D4BF70B504460D461646FFF7E4
:10438C0099FFC0B240EA062229462046BDE870409B
:10439C00FFF7C5BF08B5FFF78DFFC0F3072008BDB9
:1043AC002DE9F04104469DF818700D4698461646C6
:1043BC006AB1FFF77FFFC0B200EA080343EA0702C5
:1043CC002946204636B1BDE8F041FFF7C4BFFFF7E0
:1043DC00E1FFF1E7BDE8F041FFF7CDBFB1F5A07FFC
:1043EC0007B50ED29F290ED84F298CBF402300232E
:1043FC00009301223F230321FFF7D2FF03B05DF8A6
:10440C0004FBC023F4E78023F2E707B500210091F9
:10441C00FE230122FFF7C4FF03B05DF804FB07295C
:10442C0007B50FD803290FD810D002290CBF0423CD
:10443C00002300930122F1230321FFF7B1FF03B006
:10444C005DF804FB0E23F4E70C23F2E70823F0E7F6
:10445C0007B5002300930122FE230321FFF7A0FFE1
:10446C0003B05DF804FB07B50F298CBF08230023AC
:10447C0000930022F7230321FFF792FF03B05DF8AE
:10448C0004FB07B5022300930122EF230421FFF75D
:10449C0087FF03B05DF804FBC72907B516D8B3290D
:1044AC0016D89F2916D88B2916D8772916D86329A0
:1044BC0016D84A2994BF002101210091F82300222B
:1044CC000421FFF76DFF03B05DF804FB0721F4E74F
:1044DC000621F2E70521F0E70421EEE70321ECE7E2
:1044EC000221EAE738B504460846216000F06CFD6D
:1044FC002046FFF7D2FE054610B90025284638BDE8
:10450C002046FFF709FFB0F5C37FF6D12046C8213E
:10451C00FFF7C2FF20462821FFF760FF2046082145
:10452C00FFF77DFF10212046FFF79DFF2046FFF788
:10453C00A8FF2046FFF78CFFE0E7000008B5024B10
:10454C001B689B68019308BD6802030008B5024B09
:10455C001B68DB68019308BD6802030008B5024BB9
:10456C001B689B68019308BD2C02030008B5024B25
:10457C001B68DB68019308BD2C02030008B5024BD5
:10458C001B681B69019308BD2C02030008B5024B84
:10459C001B685B69019308BD2C02030008B5024B34
:1045AC001B685B68019308BD1802030008B5024B39
:1045BC001B685B69019308BD1802030008B5024B28
:1045CC001B685B6C019308BD4802030008B5024BE5
:1045DC001B689B6C019308BD4802030008B5024B95
:1045EC001B685B69019308BD6402030008B5024BAC
:1045FC001B681B68019308BD3C02030008B5024B05
:10460C001B68DB68019308BD3C02030008B5024B34
:10461C001B681B69019308BD3C02030008B5024BE3
:10462C001B685B69019308BD3C02030008B5024B93
:10463C001B689B69019308BD3C02030008B5024B43
:10464C001B68DB69019308BD3C02030008B5024BF3
:10465C001B681B6A019308BD3C02030008B5024BA2
:10466C001B689B6A019308BD3C02030008B5024B12
:10467C001B68DB68019308BD2802030008B5024BD8
:10468C001B689B69019308BD2802030008B5024B07
:10469C001B68DB69019308BD2802030008B5024BB7
:1046AC001B681B6A019308BD2802030008B5024B66
:1046BC001B685B6A019308BD2802030008B5024B16
:1046CC001B689B6A019308BD2802030008B5024BC6
:1046DC001B68DB6A019308BD2802030008B5024B76
:1046EC001B681B6B019308BD2802030008B5024B25
:1046FC001B685B6B019308BD2802030008B5024BD5
:10470C001B681B6C019308BD2802030008B5024B03
:10471C001B681B6D019308BD2802030008B5024BF2
:10472C001B68DB69019308BD3002030008B5024B1E
:10473C001B681B6A019308BD3002030008B5024BCD
:10474C001B681B68019308BD4C02030008B5024BA3
:10475C001B685B68019308BD4C02030008B5024B53
:10476C001B681B69019308BD4C02030008B5024B82
:10477C001B685B69019308BD4C02030008B5024B32
:10478C001B689B69019308BD4C02030008B5024BE2
:10479C001B68DB69019308BD4C02030008B5024B92
:1047AC001B681B6A019308BD4C02030008B5024B41
:1047BC001B685B68019308BD2002030008B5024B1F
:1047CC001B685B69019308BD2002030008B5024B0E
:1047DC001B68DB6A019308BD2002030008B5034B7C
:1047EC001B68D3F88830019308BD00002002030039
:1047FC0008B5034B1B68D3F89430019308BD000037
:10480C002002030008B5024B1B685B68019308BDCE
:10481C004002030008B5024B1B689B68019308BD5E
:10482C004002030008B5024B1B68DB68019308BD0E
:10483C004002030008B5024B1B681B69019308BDBD
:10484C004002030008B5024B1B685B69019308BD6D
:10485C004002030008B5024B1B689B69019308BD1D
:10486C004002030008B5024B1B68DB69019308BDCD
:10487C004002030008B5024B1B681B6A019308BD7C
:10488C004002030008B5024B1B681B6B019308BD6B
:10489C004002030008B5024B1B685B6B019308BD1B
:1048AC004002030008B5024B1B681B6C019308BD4A
:1048BC004002030008B5024B1B685B6C019308BDFA
:1048CC004002030008B5024B1B68DB6B019308BD6B
:1048DC004402030008B5024B1B681B68019308BD1A
:1048EC001C02030008B5024B1B685B68019308BDF2
:1048FC001C02030008B5024B1B685B6C019308BDDE
:10490C001C020300002240681146FFF7B3BF0022CF
:10491C0040681146FFF7BEBF40680022FFF7B2BFE8
:10492C004068002281F00101FFF79CBF0023406822
:10493C001A461946FFF78EBF002340681A461946DF
:10494C00FFF780BF002240681146FFF773BF0022BB
:10495C0040681146FFF75EBF406800220221FFF756
:10496C0061BF002340681A46FFF74CBF024B03227D
:10497C005A60024A1A60704750E603209C540D009E
:10498C0010B5044608462170FFF7C8FE002363608B
:10499C00204610BD10B5094B094C022200201A60AC
:1049AC00084B2060A080A071A360FFF7FFFE20469B
:1049BC00054A0649BDE8104000F0EEBC64E6032051
:1049CC0058E603200000FFFF2CE60320AB400D004F
:1049DC0010B50446006808B1FFF7F8FD204610BD7D
:1049EC0010B58368044613B103220146984720464C
:1049FC0010BD000010B5064C002320462360FFF7C5
:104A0C00DDFD2046034A0449BDE8104000F0C4BC5B
:104A1C0068E603202CE60320DD490D00F8B50646B8
:104A2C000D468F180024BD420CD0336815F8011BBD
:104A3C009B6830469847031E01DB1C44F3E7002CAF
:104A4C0008BF1C462046F8BD13B50446084659B1AC
:104A5C00019100F0F3FC23680199DB6802462046C3
:104A6C0002B0BDE81040184702B010BD08B5FFF702
:104A7C00EBFF08BD03689B68184738B50D21054648
:104A8C00FFF7F8FF0A2104462846FFF7F3FF2044FE
:104A9C0038BD30B58BB000238DF82430012A98BF77
:104AAC000A2209AC0D46B1FBF2F101FB125303F0E3
:104ABC00FF03092B94BF30333733DBB2AA4204F81F
:104ACC00013DEFD92146FFF7BFFF0BB030BD0023EE
:104ADC0040681A461946FFF7B5BE0000014B024A62
:104AEC001A6070476CE60320D0540D00024B1A6814
:104AFC00024B1A60704700BFC4E5032070E6032028
:104B0C000021FFF75BBE10B50446FFF769FF204696
:104B1C0010BD00000348044A04490023836000F0E0
:104B2C003BBC00BF74E603202CE60320134B0D00A6
:104B3C00014B1860704700BFC8E5032008B50B4B4C
:104B4C0043B100F05BF903681B699847002801DD4D
:104B5C00AFF30080064B43B100F0CEF903681B693C
:104B6C009847002801DDAFF3008008BD000000006D
:104B7C000000000008B5FFF7E1FFFFF717FD014B40
:104B8C00186008BDD4E703200248034A0349121AEF
:104B9C0000F01ABC00F4032004F4032030560D007E
:104BAC0007B5002300931A466FF07701FFF720FE3C
:104BBC0003B05DF804FB000007B543880A2B08D04E
:104BCC00502B0BD1094B1B684BB103B05DF804EBB8
:104BDC001847FFF7E5FF03B05DF804FB00230093D3
:104BEC001A466FF07701FFF703FEF4E788E603201F
:104BFC0038B5124C1248134D0021FFF77BFE236889
:104C0C00AB42114B0CBF012200221A7002D0FFF7ED
:104C1C00BBFF2560FFF7C2FC044600F0EBFB0B4B1F
:104C2C0013B12046AFF3008000210848FFF74AFE7D
:104C3C00BDE8384006480021FFF7D0BD00F4032042
:104C4C003D4B0D001E1C279A84E60320000000003B
:104C5C00C54B0D00704710B51821044600F0A1FBA0
:104C6C00204610BDF0B5037D062B8DB00E4600F12D
:104C7C0004074FF0000412D000F1080515F8011DCF
:104C8C000A223046FFF705FFAF42044419D0002C2E
:104C9C00F4D02E213046FFF7EDFE0444EEE72F232F
:104CAC006A4639460A208DF80040FFF797FC6846A3
:104CBC0000F0C4FB33680246DB686946304698470F
:104CCC00044620460DB0F0BD10B5054B044611222C
:104CDC0040F8043B002100F085FB204610BD00BFCE
:104CEC00F8540D000346074A10B543F8042B01F1A4
:104CFC00100251F8044B43F8044B9142F9D10A7855
:104D0C001A7010BDF8540D0010B59DF8084044EA17
:104D1C00032343EA024242EA016104234160037522
:104D2C0010BD000013B5054B0360CB7800938B7856
:104D3C004A780978FFF7E8FF02B010BDF8540D006F
:104D4C0041747047704708B50021007CFFF716FDD1
:104D5C0040EAE07008BD08B50121007CFFF70EFDAC
:104D6C0040EAE07008BD08B5007CFFF7FFFC20EAC4
:104D7C00E07008BD08B5007CFFF7F0FC20EAE0709D
:104D8C0008BD13B50446007C0191FFF7EFFC002829
:104D9C00019901DC607C20B1207CFFF7F7FC20EA54
:104DAC00E07002B010BD007CFFF7F8BC10B5142108
:104DBC00044600F0F6FA204610BD000010B54FF482
:104DCC007A73044608460021C4E90113044B23609E
:104DDC000123207463741146FFF7B0FC204610BD0C
:104DEC000C550D00007C0022FFF7B0BC10B514224E
:104DFC000446002100F0F6FA204610BD10B5104C08
:104E0C0088B003A8FFF7F2FF2178BFF35B8F11F096
:104E1C00010111D120460191FFF739F9019958B1DF
:104E2C0003AA0848FFF7CAFF2046FFF735F9064AE0
:104E3C000649044800F0B0FA024808B010BD00BFA3
:104E4C008CE6032090E603202CE60320514D0D0048
:104E5C0070474174704708B5007CFFF7FFFB20EAF0
:104E6C00E07008BD08B5007CFFF7D0FB20EAE070CD
:104E7C0008BD08B5007CFFF7D9FB40EAE07008BD1F
:104E8C0008B5007CFFF7CAFB40EAE07008BD007C67
:104E9C00FFF7D4BB37B5457C04462DB1207C03B05D
:104EAC00BDE83040FFF7AABB007C0191FFF7D6FBB1
:104EBC0000280199F2DC284603B030BD10B514214E
:104ECC00044600F06EFA204610BD000010B54FF0FD
:104EDC00000C0446084611464FF47A72C4E901C22C
:104EEC00044A22600122207462741A46FFF77EFB8A
:104EFC00204610BD3C550D0013B50E4C2178BFF368
:104F0C005B8F11F0010112D120460191FFF7BFF820
:104F1C00019960B1084A094B0948FFF7D7FF2046B1
:104F2C00FFF7BAF8074A0849054800F035FA044873
:104F3C0002B010BDA4E60320A8E603202CE7032052
:104F4C00B0E703202CE603205D4E0D007047F8B54A
:104F5C00064615460C468F18BC4206D0336814F82A
:104F6C00011B9B6830469847F6E72846F8BD007C45
:104F7C000022FFF793BB007C0021FFF797BB007C5E
:104F8C000021FFF79BBB007C0021FFF79FBB007C3F
:104F9C000021FFF7A3BB10B51421044600F001FA61
:104FAC00204610BD10B54FF47A7304460846002114
:104FBC00C4E90113034B236020741146FFF79EFBD9
:104FCC00204610BD6C550D000023007C1A46194676
:104FDC00FFF74CBB7FB500221423CDE90122ADF8BD
:104FEC0004300B788DF808304B680393CB6804932E
:104FFC00007C0B7A059301A9FFF788FB07B05DF8DD
:10500C0004FB1FB5003B8DF800104FF064010391B9
:10501C0018BF0123694601928DF80830FFF7DAFFBB
:10502C0005B05DF804FB0123FFF7EBBF007C002209
:10503C00FFF724BB007C0022FFF728BB0121FFF700
:10504C00F9BF002240681146FFF7F4BB002240680C
:10505C001146FFF70FBC002240681146FFF71ABC3F
:10506C0040680022FFF70EBC4068002281F001016D
:10507C00FFF7F8BB002340681A461946FFF7EABB56
:10508C00002240681146FFF7C5BB40680022022190
:10509C00FFF7C8BB002340681A46FFF7B3BB0000FC
:1050AC00024B04225A60024A1A607047C4E703207C
:1050BC0094550D00002340681A46FFF7A3BB4068C7
:1050CC0000220221FFF7AEBB002240681146FFF719
:1050DC00A1BB002240681146FFF7ACBB002340681F
:1050EC001A461946FFF7AEBB002340681A4619460C
:1050FC00FFF7B0BB40680021FFF7D4BB406800212C
:10510C00FFF7D8BB4068002281F00101FFF7AABB72
:10511C0040680022FFF7B6BB002240681146FFF73B
:10512C00B9BB002240681146FFF7A4BB2DE9F04340
:10513C00002495B016460D460746FFF7C5FD2146DF
:10514C0018220EA8009400F04DF94023CDE90C3440
:10515C0021466B460CAA3046FFF7F8F904460028A6
:10516C004CD1024601216868FFF764FB022180469E
:10517C0022466868FFF75EFB009E81462146002EA2
:10518C003CD000293AD17368022B03D00A2B11D0E2
:10519C00F669F4E7B8F1000F0AD0716906A804317A
:1051AC0007ADFFF7BFFD0FCD3C1D0FC42B6823705F
:1051BC004146EDE7B9F1000F01D14946E8E77469C2
:1051CC00102201A800F00EF906238DF8143001AD61
:1051DC0004F108031834186859682A4603C20833C6
:1051EC00A3421546F7D101A906A807ADFFF77AFD32
:1051FC000FCD3C1D0FC42B682370DEE70098FFF722
:10520C009DF9384615B0BDE8F0830000024B034A07
:10521C001A6000225A607047CCE70320D0550D006D
:10522C00232813B502D9002002B010BDA0F10B0346
:10523C00022B1AD8174C2178BFF35B8F11F00101A8
:10524C000BD120460191FEF722FF019928B112489B
:10525C00FFF796FB2046FEF71FFF0F4B1878FFF762
:10526C0065FA0028DFD10120DEE7012809D800F01B
:10527C006BF80021007CFFF739FA80F00100C0B216
:10528C00D2E709380128EED8FFF736FE007CFFF78D
:10529C00DDF9F2E744E6032048E60320232838B57D
:1052AC0004460D460AD8FF2908D0FFF7B9FF28B1EC
:1052BC0029462046BDE83840FFF750B938BD38B50F
:1052CC0004460D46FFF752F9FF2810D0062804D8E3
:1052DC004D2323FA00F0C30709D42046FFF7A0FFA3
:1052EC0028B129462046BDE83840FFF747B938BDFC
:1052FC0010B50446FFF73AF9031FDBB2012B08D9AE
:10530C002046FFF78DFF20B12046BDE81040FFF787
:10531C003DB9002010BD000038B500232025438086
:10532C00142304460380856005610649284600F075
:10533C003AF804496060284600F035F8E0602046F1
:10534C0038BD00BF04560D0030B50F4D2978BFF3A2
:10535C005B8F11F0010487B013D12846FEF797FE3E
:10536C0078B101A8FFF7D8FF01AA21460748FFF73B
:10537C0019FE2846FEF790FE054A0649034800F040
:10538C000BF8024807B030BDD8E70320DCE7032058
:10539C002CE60320594F0D000B460146184600F031
:1053AC0005B8FEF772BEFEF76EBE000010B5054CD8
:1053BC0013462CB10A4601460220AFF3008010BD03
:1053CC002046FCE7000000000A44914200F1FF3344
:1053DC0000D1704710B511F8014B03F8014F914201
:1053EC00F9D110BD02440346934200D1704703F833
:1053FC00011BF9E738B50D4B1D68AB6B04467BB947
:10540C001820FFF767FA0A4A0A4BA863C0E9002381
:10541C00094B83600B23838101220023C0E9042301
:10542C00AB6B00221C615A6138BD00BFC8E503207C
:10543C000E33CDAB34126DE6ECDE0500034613F8EB
:10544C00012B002AFBD1181A013870471D400D00A2
:10545C0059400D0081400D0085400D0000000000FA
:10546C0050726F78696D6974793A20004C6967687D
:10547C00742076616C75653A200049324320616472
:10548C0064726573733A2000000000000000000095
:10549C006F490D0065490D005B490D0051490D0028
:1054AC0045490D0039490D0001510D0009510D0000
:1054BC002D490D0025490D001B490D0011490D000A
:1054CC0039510D006170700025592D256D2D256405
:1054DC005425483A254D3A2553257A006173637457
:1054EC00696D65000000000000000000714C0D00AB
:1054FC00614C0D00634C0D0000000000000000002A
:10550C00514D0D00B94D0D008F4D0D00294A0D0068
:10551C00814D0D00534D0D00634D0D00B34D0D002D
:10552C00734D0D004D4D0D000000000000000000FB
:10553C005D4E0D00C94E0D00A14E0D00294A0D0007
:10554C00714E0D008D4E0D007F4E0D009B4E0D00CB
:10555C005F4E0D00634E0D000000000000000000C7
:10556C00594F0D00A34F0D007B4F0D005B4F0D00ED
:10557C00834F0D008B4F0D00934F0D009B4F0D0073
:10558C000000000000000000A1500D0097500D001D
:10559C008D500D004F500D00DB4A0D0081500D0059
:1055AC0001510D0009510D0075500D006D500D008D
:1055BC0063500D0059500D0039510D0000000000D2
:1055CC0000000000C1500D00CB500D00D5500D0057
:1055DC00DF500D00E9500D00F5500D0001510D008C
:1055EC0009510D0011510D001D510D0025510D00DB
:1055FC002F510D0039510D000000000059420D00D3
:10560C0079490D00A1490D00014A0D00E94A0D0030
:10561C00F94A0D00214B0D00AD500D0019520D0033
:04562C00000000007A
:045630000000000076
:1056340010087700E8540D00CCE5032000000000BA
:105644000000000000000000000000000000000056
:105654000000000000000000000000000000000046
:105664000000000000000000000000000000000036
:105674000000000000000000000000000000000026
:105684000000000000000000000000000000000016
:0C5694000000000000000000000000000A
:1056A000FFFFFFFF00000102030405060708090AC7
:1056B0000B0C0D0E0F101112131415161718191AC2
:0856C0001B1C1D1E1F20280009
:0456C80078563412CA
:04000003D000401CCD
:00000001FF
